:100000000C945D000C9485000C9485000C94850084
:100010000C94DF060C9485000C9485000C948500EC
:100020000C9485000C9485000C9485000C9485003C
:100030000C9485000C94B8060C9485000C948500F3
:100040000C94EC040C9485000C9458050C94320527
:100050000C9485000C9485000C9485000C9485000C
:100060000C948A050C9485000000000024002700F1
:100070002A0000000000250028002B0004040404CE
:100080000404040402020202020203030303030342
:10009000010204081020408001020408102001021F
:1000A00004081020000000080002010000030407FB
:1000B0000000000000000000250711241FBECFEF44
:1000C000D8E0DEBFCDBF11E0A0E0B1E0E0E3FCE1AD
:1000D00002C005900D92A832B107D9F723E0A8E23B
:1000E000B1E001C01D92A130B207E1F710E0CDE50B
:1000F000D0E004C02197FE010E941A0BCC35D10735
:10010000C9F70E9461070C94160E0C94000090E051
:10011000FC01EC55FF4F2491FC01E057FF4F349157
:10012000FC01E458FF4FE491EE2309F43CC0222384
:1001300039F1233091F038F42130A9F0223001F563
:1001400084B58F7D12C0273091F02830A1F0243083
:10015000B9F4809180008F7D03C0809180008F77FB
:10016000809380000DC084B58F7784BD09C08091D5
:10017000B0008F7703C08091B0008F7D8093B00076
:10018000F0E0EE0FFF1FEE58FF4FA591B4919FB71F
:10019000F894611104C08C913095382302C0EC9121
:1001A0003E2B3C939FBF0895CF93DF9390E0FC01DB
:1001B000E057FF4F2491FC01E458FF4F84918823BE
:1001C00061F190E0880F991FFC01E859FF4FC5913C
:1001D000D491FC01EE58FF4FA591B491611109C073
:1001E0009FB7F8948881209582238883EC912E23F1
:1001F0000BC0623061F49FB7F8948881322F30953C
:1002000083238883EC912E2B2C939FBF06C08FB73E
:10021000F894E8812E2B28838FBFDF91CF9108952A
:100220001F93CF93DF93182FEB0161E00E94D4005E
:10023000209711F460E004C0CF3FD10539F461E0AC
:10024000812FDF91CF911F910C948700E12FF0E077
:10025000EC55FF4FE491E330F9F048F4E130B9F0A8
:10026000E230A1F584B5806284BDC8BD34C0E730FA
:10027000E9F0E83019F1E43049F5809180008062BE
:1002800080938000D0938B00C0938A0024C084B5F3
:10029000806884BDC7BD1FC0809180008068809346
:1002A0008000D0938900C093880015C08091B00071
:1002B00080688093B000C093B3000DC08091B000FF
:1002C00080628093B000C093B40005C0C038D105EF
:1002D0000CF0B5CFAFCFDF91CF911F9108954F9222
:1002E0005F926F927F928F929F92AF92BF92CF92C6
:1002F000DF92EF92FF92CF93DF9300D000D0CDB783
:10030000DEB72091DA013091DB014091DC015091A0
:10031000DD0160913A0170913B0180913C01909127
:100320003D010E94DC086B017C0126EA3BE944E4C4
:100330005BE30E94AD0A2091360130913701409174
:100340003801509139010E94DD084B015C01609336
:1003500036017093370180933801909339012091D1
:100360003201309133014091340150913501C70180
:10037000B6010E94DC0826EA3BE944E45BE30E9404
:100380004E0920E030E0A9010E94AD0A69837A831A
:100390008B839C8320E030E048EC52E4C701B60137
:1003A0000E94AD0A2B013C0120E030E044EB52E416
:1003B000C501B4010E94AD0A9B01AC01C301B201A9
:1003C0000E94DD089B01AC0169817A818B819C814F
:1003D0000E94DD0860932E0170932F0180933001FD
:1003E00090933101C0923201D0923301E0923401F6
:1003F000F0923501C090E201D090E301E090E40179
:10040000F090E501C092DE01D092DF01E092E001C0
:10041000F092E10120E030E04FE753E40E94A80AA7
:10042000181664F480E090E0AFE7B3E480932E0107
:1004300090932F01A0933001B093310120E030E080
:100440004FE753EC60912E0170912F0180913001A4
:10045000909131010E94490987FF0CC080E090E033
:10046000AFE7B3EC80932E0190932F01A09330015E
:10047000B093310120E030E0A90160912E0170912C
:100480002F0180913001909131010E94A80A87FDCF
:1004900002C05F9801C05F9A60912E0170912F0198
:1004A00080913001909131010E94C0097B0177FF5A
:1004B00004C0EE24FF24E61AF70AF0922D01E09220
:1004C0002C01B70186E00E941001B70185E00F9072
:1004D0000F900F900F90DF91CF91FF90EF90DF90F2
:1004E000CF90BF90AF909F908F907F906F905F90D4
:1004F0004F900C941001E091D201F091D30130970C
:1005000029F01092CD011092CC0109940895CF9357
:10051000DF93AC01E091D001F091D1013097F1F07F
:100520009091CF018091CE019817C0F090E0292FD3
:1005300030E02617370754F4D901A25CBE4FEA0118
:10054000C20FD31F28812C939F5FF1CF1092CF0150
:100550006093CE01CB01DF91CF910994DF91CF91D0
:100560000895CF92DF92EF92FF920F931F93CF9354
:10057000DF936C017A018B01C0E0D0E0CE15DF057E
:1005800081F0D8016D918D01D601ED91FC91019022
:10059000F081E02DC6010995892B11F02196EECF4F
:1005A0007E01C701DF91CF911F910F91FF90EF90D6
:1005B000DF90CF900895FC01538D448D252F30E0BE
:1005C000842F90E0821B930B541710F0CF96089560
:1005D00001970895FC01918D828D981761F0828DAD
:1005E000DF01A80FB11D5D968C91928D9F5F9F7367
:1005F000928F90E008958FEF9FEF0895FC01918D09
:10060000828D981731F0828DE80FF11D858D90E075
:1006100008958FEF9FEF0895FC01918D228D892F12
:1006200090E0805C9F4F821B91098F7399270895FA
:1006300083EF91E00E940C0321E0892B09F420E074
:10064000822F0895FC01848DDF01A80FB11DA35AEC
:10065000BF4F2C91848D90E001968F739927848FE2
:10066000A689B7892C93A089B1898C918370806405
:100670008C93938D848D981306C00288F389E02DA6
:1006800080818F7D80830895EF92FF920F931F9357
:10069000CF93DF93EC0181E0888F9B8D8C8D981335
:1006A00005C0E889F989808185FD26C0F62E0B8D6D
:1006B00010E00F5F1F4F0F731127E02E8C8DE81293
:1006C0000CC00FB607FCFACFE889F989808185FF55
:1006D000F5CFCE010E942203F1CF8B8DFE01E80FF2
:1006E000F11DE35AFF4FF0829FB7F8940B8FEA8910
:1006F000FB89808180620AC09FB7F894EE89FF89E8
:100700006083E889F98980818370806480839FBFDA
:1007100081E090E0DF91CF911F910F91FF90EF90DA
:100720000895CF93DF93EC01888D8823C9F0EA897F
:10073000FB89808185FD05C0A889B9898C9186FDDA
:100740000FC00FB607FCF5CF808185FFF2CFA889D7
:10075000B9898C9185FFEDCFCE010E942203E7CFAE
:10076000DF91CF91089580E090E0892B29F00E94DD
:10077000180381110C940000089585ED8093BC004E
:100780008091BC0084FDFCCF1092CB010895409174
:100790007E01262F30E0240F311D21323105DCF49B
:1007A0002091CB012430C9F4FC0180E090E0861751
:1007B00058F430917E012191DC01A25ABE4FA30F63
:1007C000B11D2C930196F3CF80917E01680F609349
:1007D0007E0180E0089581E0089582E00895089503
:1007E000E091CF018091CE01E81730F4F0E0E25CB7
:1007F000FE4F808190E008958FEF9FEF08959091D4
:10080000CF018091CE01981750F4E92FF0E0E25C1F
:10081000FE4F208130E09F5F9093CF0102C02FEF09
:100820003FEFC90108958091CE0190E02091CF0162
:10083000821B91090895CF93DF93CB01EA01642FC6
:100840000E94C703CE01DF91CF910895CF93DF932C
:100850001F92CDB7DEB7698361E0CE0101960E9499
:10086000C70381E090E00F90DF91CF910895089544
:1008700080E090E008950E94200B0F931F93CF9388
:10088000DF93CDB7DEB72A970FB6F894DEBF0FBE61
:10089000CDBF8E010F5F1F4F8AE0F80111928A953C
:1008A000E9F76091DA017091DB018091DC019091B0
:1008B000DD0120E030E048EC52E40E94AD0A0E94E5
:1008C000C0097F936F9384E291E09F938F931F936E
:1008D0000F930E942C0BF80101900020E9F731974B
:1008E000AF01401B510BB80180E992E00E941B044C
:1008F0000F900F900F900F900F900F902A960FB6B9
:10090000F894DEBF0FBECDBFDF91CF911F910F9145
:100910000895CF92DF92EF92FF920F931F93CF93A0
:10092000DF93CDB7DEB7C456D1090FB6F894DEBF5A
:100930000FBECDBF1A821982FE01339682E6DF0117
:100940001D928A95E9F78E010F5F1F4F78016701AD
:10095000C01AD10A9091CE018091CF019817A1F0D1
:1009600080E992E00E94FF03843251F4F801EC0D1B
:10097000FD1D1082B8018DE992E00E94250B04C094
:10098000F70181937F01E3CF8DE992E00E94B608E1
:10099000BC01990F880B990B0E94F80920E030E008
:1009A00048EC52E40E944E0960933A0170933B0177
:1009B00080933C0190933D01CC59DF4F0FB6F894E2
:1009C000DEBF0FBECDBFDF91CF911F910F91FF9082
:1009D000EF90DF90CF9008951F920F920FB60F9275
:1009E00011242F933F938F939F93AF93BF93809145
:1009F000EF019091F001A091F101B091F2013091DD
:100A0000EE0126E6230F2D3728F029EE230F01965D
:100A1000A11DB11D2093EE018093EF019093F00191
:100A2000A093F101B093F2018091EA019091EB0162
:100A3000A091EC01B091ED010196A11DB11D809333
:100A4000EA019093EB01A093EC01B093ED01BF910B
:100A5000AF919F918F913F912F910F900FBE0F906B
:100A60001F9018951F920F920FB60F9211242F937B
:100A70003F934F935F936F937F938F939F93AF9326
:100A8000BF93EF93FF9383EF91E00E942203FF91C6
:100A9000EF91BF91AF919F918F917F916F915F91F6
:100AA0004F913F912F910F900FBE0F901F9018956F
:100AB0001F920F920FB60F9211242F938F939F9333
:100AC000EF93FF93E0910302F09104028081E091A3
:100AD0000902F0910A0282FD12C0908180910C02FD
:100AE0008F5F8F7320910D02821751F0E0910C02FD
:100AF000F0E0ED50FE4F958F80930C0201C0808195
:100B0000FF91EF919F918F912F910F900FBE0F90BA
:100B10001F9018951F920F920FB60F9211242F93CA
:100B20003F934F935F936F937F938F939F93AF9375
:100B3000BF93EF93FF938091B900887F803609F4CB
:100B40009CC068F5883209F45BC090F4803109F4E8
:100B500054C038F4882309F4F6C0883009F44DC035
:100B6000F6C0883109F44CC0803209F45DC0EFC092
:100B7000803409F468C048F4803309F455C08833E0
:100B800009F0E5C08093A101D8C0803509F44FC0B9
:100B9000883509F45DC0883409F0D9C0D6C08839D9
:100BA00009F4C7C0A8F4883709F467C038F4883658
:100BB00009F463C0803709F460C0C9C0883809F4FB
:100BC000B8C0803909F45FC0803809F0C0C05BC08C
:100BD000803B09F486C038F4803A09F466C0883A4C
:100BE00009F47FC0B4C0803C09F4A7C0883C09F474
:100BF000A4C0883B09F48AC0AAC08091C40110C077
:100C00009091C3018091C201981770F5E091C301E2
:100C100081E08E0F8093C301F0E0EE55FE4F80819E
:100C20008093BB0085EC86C08093A1018EC0E091CB
:100C3000C30181E08E0F8093C3018091BB00F0E07F
:100C4000EE55FE4F80839091C3018091C2016EC02A
:100C5000E091C30181E08E0F8093C3018091BB00BE
:100C6000F0E0EE55FE4F80838091CA0181116DC086
:100C700081E08093C90184EA61C083E08093CB0165
:100C80001092A001CFCF8091A001803208F051C016
:100C9000E091A00181E08E0F8093A0018091BB00C4
:100CA000F0E0E058FE4F8083BDCF85EC8093BC0020
:100CB0001092CB018091A001803230F4E091A0012C
:100CC000F0E0E058FE4F10826091A00170E0E091EA
:100CD000C501F091C60180E891E009951092A0014C
:100CE00036C084E08093CB0110927F0110927E0188
:100CF000E091C701F091C801099580917E018111B1
:100D000005C081E080937E0110925E01E0917F0139
:100D100081E08E0F80937F01F0E0E25AFE4F8081E8
:100D20008093BB0090917F0180917E01981708F419
:100D300079CF85E88093BC000AC085EC8093BC0025
:100D40001092CB0104C01092A1010E94BD03FF913B
:100D5000EF91BF91AF919F918F917F916F915F9133
:100D60004F913F912F910F900FBE0F901F901895AC
:100D70001F920F920FB60F9211242F933F934F9310
:100D80005F936F937F938F939F93AF93BF93EF93F3
:100D9000FF93E091D801F091D9010995FF91EF916E
:100DA000BF91AF919F918F917F916F915F914F9183
:100DB0003F912F910F900FBE0F901F901895789430
:100DC0001F920F920FB60F9211242F933F934F93C0
:100DD0005F938F939F93AF93BF9356B146B1252FE7
:100DE000217030E041FB882780F990E0281739070F
:100DF00061F08091E6019091E701A091E801B09146
:100E0000E9010197A109B1090BC08091E601909118
:100E1000E701A091E801B091E9010196A11DB11D82
:100E20008093E6019093E701A093E801B093E90174
:100E3000BF91AF919F918F915F914F913F912F9172
:100E40000F900FBE0F901F901895E3EFF1E0138203
:100E5000128288EE93E0A0E0B0E084839583A683BD
:100E6000B78324E031E03183208325EC30E03587FF
:100E7000248724EC30E03787268720EC30E0318B64
:100E8000208B21EC30E0338B228B22EC30E0358B51
:100E9000248B26EC30E0378B268B118E128E138E2E
:100EA000148EE0E9F2E01382128284839583A68394
:100EB000B78386E191E09183808383E280939C02F3
:100EC0000895789484B5826084BD84B5816084BDC2
:100ED00085B5826085BD85B5816085BD80916E00D8
:100EE000816080936E001092810080918100826009
:100EF0008093810080918100816080938100809146
:100F000080008160809380008091B1008460809334
:100F1000B1008091B00081608093B00080917A0030
:100F2000846080937A0080917A00826080937A0056
:100F300080917A00816080937A0080917A00806845
:100F400080937A001092C100809168008260809343
:100F5000680080916C00816080936C00E0910302D6
:100F6000F091040282E08083E091FF01F0910002A1
:100F7000C1E0C083E0910102F091020283E080832E
:100F800010920B02E0910702F091080286E0808344
:100F9000E0910502F0910602808180618083E091FA
:100FA0000502F0910602808188608083E09105024D
:100FB000F0910602808180688083E0910502F091C3
:100FC000060280818F7D808362E082E00E94D400EF
:100FD00062E083E00E94D40061E086E00E94D400D9
:100FE00061E085E00E94D40061E087E00E94D400C7
:100FF00060E08EE00E94D40060E08FE00E94D400A8
:101000001092800080E180938100C093D6018FB759
:101010008093D701F89480E395E79093D50180936E
:10102000D40190938700809386008091D7018FBF71
:1010300080918100887F80938100909181008091D0
:10104000D601982B909381002FE631E03093D9019F
:101050002093D801C0936F0090918100892B8093D9
:1010600081001092CF011092CE011092CD0110920A
:10107000CC011092CB01C093CA011092C90161E06A
:1010800082E10E94870061E083E10E9487008091F5
:10109000B9008E7F8093B9008091B9008D7F8093D5
:1010A000B9008CE58093B80085E48093BC008BE7A1
:1010B00092E09093C8018093C70187E892E09093F3
:1010C000C6018093C50186E48093BA0089E894E064
:1010D0009093D1018093D0018DE394E09093D3015C
:1010E0008093D2018091B00080688093B0006091BD
:1010F000E6017091E7018091E8019091E9010E9479
:10110000F8096093E2017093E3018093E401909306
:10111000E5012091DE013091DF014091E001509125
:10112000E1010E94DC0826EA3BE944E45BE30E941B
:101130004E0920E030E04AE755E40E944E0923ECD6
:1011400035EF48E450E40E94AD0A2FE632E143E86F
:101150005DE30E94AD0A6093DA017093DB01809336
:10116000DC019093DD010E94B303C1CFFC0188270D
:101170009927E89421912032E9F3293010F02E309C
:10118000C8F32B3241F02D3239F4689404C00E9428
:10119000D408820F911D219120532A30C0F31EF4F0
:1011A000909581959F4F08957AE0979F902D879F06
:1011B000802D910D112408955058BB27AA270E9415
:1011C000F4080C946E0A0E94600A38F00E94670AC4
:1011D00020F039F49F3F19F426F40C945D0A0EF4C4
:1011E000E095E7FB0C94570AE92F0E947F0A58F319
:1011F000BA17620773078407950720F079F4A6F5FC
:101200000C94A10A0EF4E0950B2EBA2FA02D0B0121
:10121000B90190010C01CA01A0011124FF27591B3B
:1012200099F0593F50F4503E68F11A16F040A22F41
:10123000232F342F4427585FF3CF469537952795B2
:10124000A795F0405395C9F77EF41F16BA0B620BB1
:10125000730B840BBAF09150A1F0FF0FBB1F661FF8
:10126000771F881FC2F70EC0BA0F621F731F841F3B
:1012700048F4879577956795B795F7959E3F08F061
:10128000B0CF9395880F08F09927EE0F9795879523
:1012900008950E94330A08F481E008950E946209CB
:1012A0000C946E0A0E94670A58F00E94600A40F08F
:1012B00029F45F3F29F00C94570A51110C94A20AAB
:1012C0000C945D0A0E947F0A68F39923B1F35523B9
:1012D00091F3951B550BBB27AA2762177307840749
:1012E00038F09F5F5F4F220F331F441FAA1FA9F3DF
:1012F00035D00E2E3AF0E0E832D091505040E695CD
:10130000001CCAF72BD0FE2F29D0660F771F881F2D
:10131000BB1F261737074807AB07B0E809F0BB0B20
:10132000802DBF01FF2793585F4F3AF09E3F510534
:1013300078F00C94570A0C94A20A5F3FE4F3983EAD
:10134000D4F3869577956795B795F7959F5FC9F71D
:10135000880F911D9695879597F90895E1E0660F9E
:10136000771F881FBB1F621773078407BA0720F017
:10137000621B730B840BBA0BEE1F88F7E095089580
:101380000E94C7096894B1110C94A20A08950E94A2
:10139000870A88F09F5798F0B92F9927B751B0F076
:1013A000E1F0660F771F881F991F1AF0BA95C9F7E9
:1013B00014C0B13091F00E94A10AB1E008950C94DC
:1013C000A10A672F782F8827B85F39F0B93FCCF38F
:1013D000869577956795B395D9F73EF49095809566
:1013E000709561957F4F8F4F9F4F0895E89409C086
:1013F00097FB3EF490958095709561957F4F8F4F48
:101400009F4F9923A9F0F92F96E9BB279395F6955D
:10141000879577956795B795F111F8CFFAF4BB0FDB
:1014200011F460FF1BC06F5F7F4F8F4F9F4F16C03F
:10143000882311F096E911C0772321F09EE8872FC9
:10144000762F05C0662371F096E8862F70E060E085
:101450002AF09A95660F771F881FDAF7880F9695FE
:10146000879597F90895990F0008550FAA0BE0E8A2
:10147000FEEF16161706E807F907C0F01216130656
:10148000E407F50798F0621B730B840B950B39F496
:101490000A2661F0232B242B252B21F408950A26FC
:1014A00009F4A140A6958FEF811D811D089597F93C
:1014B0009F6780E870E060E008959FEF80EC0895FA
:1014C00000240A9416161706180609060895002423
:1014D0000A9412161306140605060895092E03949D
:1014E000000C11F4882352F0BB0F40F4BF2B11F411
:1014F00060FF04C06F5F7F4F8F4F9F4F089557FD70
:101500009058440F551F59F05F3F71F04795880F71
:1015100097FB991F61F09F3F79F087950895121608
:1015200013061406551FF2CF4695F1DF08C01616B4
:1015300017061806991FF1CF869571056105089465
:101540000895E894BB2766277727CB0197F908957C
:101550000E94330A08F48FEF08950E94C00A0C9489
:101560006E0A0E94600A38F00E94670A20F09523F4
:1015700011F00C94570A0C945D0A11240C94A20AE1
:101580000E947F0A70F3959FC1F3950F50E0551F9D
:10159000629FF001729FBB27F00DB11D639FAA27C8
:1015A000F00DB11DAA1F649F6627B00DA11D661F17
:1015B000829F2227B00DA11D621F739FB00DA11D38
:1015C000621F839FA00D611D221F749F3327A00DF2
:1015D000611D231F849F600D211D822F762F6A2F8E
:1015E00011249F5750409AF0F1F088234AF0EE0FF3
:1015F000FF1FBB1F661F771F881F91505040A9F720
:101600009E3F510580F00C94570A0C94A20A5F3F4C
:10161000E4F3983ED4F3869577956795B795F7955B
:10162000E7959F5FC1F7FE2B880F911D96958795D3
:1016300097F90895EE0FFF1F0590F491E02D09949E
:1016400081E090E0F8940C94160EFB01DC0101900F
:101650000D920020E1F70895AEE0B0E0E2E3FBE098
:101660000C94ED0D0D891E8986E08C831A83098305
:101670008FEF9FE79E838D83AE01475E5F4F6F893B
:10168000788DCE0101960E944E0BEF81F885E00F18
:10169000F11F10822E96E4E00C94090EABE0B0E04E
:1016A000E4E5FBE00C94DF0D6C017B018A01FC0199
:1016B00017821682838181FFCCC1CE0101963C0145
:1016C000F6019381F70193FD859193FF81917F014D
:1016D000882309F4BAC1853239F493FD859193FFCB
:1016E00081917F01853229F4B60190E00E94450D79
:1016F000E7CF912C212C312CFFE1F315D8F08B3260
:1017000079F038F4803279F08332A1F4232D20610E
:101710001DC08D3261F0803369F4232D216016C025
:10172000832D8260382EE32DE4603E2E2AC0F32DF7
:10173000F8601DC037FC2DC020ED280F2A3040F086
:101740008E32B9F436FC81C1232D2064322E19C0AB
:1017500036FE06C08AE0989E200D1124922E11C0FC
:10176000EAE02E9E200D1124222EF32DF0623F2E52
:1017700008C08C3621F4832D8068382E02C088364C
:1017800041F4F70193FD859193FF81917F018111D0
:10179000B3CF982F9F7D9554933028F40C5F1F4F43
:1017A0009FE399830DC0833631F0833771F0833521
:1017B00009F059C021C0F801808189830E5F1F4F55
:1017C00088248394912C530113C02801F2E04F0E1A
:1017D000511CF801A080B18036FE03C0692D70E075
:1017E00002C06FEF7FEFC5010E943A0D4C018201EC
:1017F000F32DFF773F2E16C0280122E0420E511C28
:10180000F801A080B18036FE03C0692D70E002C0EF
:101810006FEF7FEFC5010E942F0D4C01F32DF06893
:101820003F2E820133FC1BC0822D90E08816990662
:10183000B0F4B60180E290E00E94450D2A94F4CF06
:10184000F50137FC859137FE81915F01B60190E08B
:101850000E94450D21102A9421E0821A91088114DA
:10186000910471F7E8C0843611F0893641F5F8012A
:1018700037FE07C060817181828193810C5F1F4FA9
:1018800008C060817181072E000C880B990B0E5FD8
:101890001F4FF32DFF763F2E97FF09C0909580953F
:1018A000709561957F4F8F4F9F4FF0683F2E2AE0D4
:1018B00030E0A3010E94810D882E861845C085372F
:1018C00031F4232D2F7EB22E2AE030E025C0932D57
:1018D000997FB92E8F36C1F018F4883579F0B5C0EC
:1018E000803719F0883721F0B0C0E92FE061BE2EB3
:1018F000B4FE0DC0FB2DF460BF2E09C034FE0AC03B
:10190000292F2660B22E06C028E030E005C020E175
:1019100030E002C020E132E0F801B7FE07C060818C
:101920007181828193810C5F1F4F06C0608171813C
:1019300080E090E00E5F1F4FA3010E94810D882E72
:101940008618FB2DFF773F2E36FE0DC0232D2E7FF0
:10195000A22E891458F434FE0BC032FC09C0832D2A
:101960008E7EA82E05C0B82CA32C03C0B82C01C0B5
:10197000B92CA4FE0FC0FE01E80DF11D808180335B
:1019800021F49A2D997EA92E09C0A2FE06C0B39417
:10199000B39404C08A2D867809F0B394A3FC11C0D7
:1019A000A0FE06C0B21488F4280C922C9B180EC01E
:1019B000B21460F4B60180E290E00E94450DB39449
:1019C000F7CFB21418F42B1802C0982C212CA4FEC7
:1019D00010C0B60180E390E00E94450DA2FE17C042
:1019E000A1FC03C088E790E002C088E590E0B60162
:1019F0000CC08A2D867859F0A1FE02C08BE201C08E
:101A000080E2A7FC8DE2B60190E00E94450D8914AA
:101A100038F4B60180E390E00E94450D9A94F7CF28
:101A20008A94F301E80DF11D8081B60190E00E94D7
:101A3000450D8110F5CF222009F442CEB60180E297
:101A400090E00E94450D2A94F6CFF6018681978199
:101A500002C08FEF9FEF2B96E2E10C94FB0DFC018F
:101A60000590615070400110D8F7809590958E0FC9
:101A70009F1F0895FC016150704001900110D8F73C
:101A8000809590958E0F9F1F08950F931F93CF936E
:101A9000DF93FB01238121FD03C08FEF9FEF2CC05B
:101AA00022FF16C046815781248135814217530792
:101AB00044F4A081B1819D012F5F3F4F318320838A
:101AC0008C93268137812F5F3F4F3783268314C045
:101AD0008B01EC01FB010084F185E02D0995892B38
:101AE000E1F6D80116968D919C911797019617965D
:101AF0009C938E931697CE01DF91CF911F910F91FA
:101B00000895FA01AA27283051F1203181F1E89493
:101B10006F936E7F6E5F7F4F8F4F9F4FAF4FB1E0E0
:101B20003ED0B4E03CD0670F781F891F9A1FA11DDB
:101B3000680F791F8A1F911DA11D6A0F711D811DDC
:101B4000911DA11D20D009F468943F912AE0269FA1
:101B500011243019305D3193DEF6CF010895462F00
:101B60004770405D4193B3E00FD0C9F7F6CF462FE1
:101B70004F70405D4A3318F0495D31FD405241934A
:101B800002D0A9F7EACFB4E0A69597958795779507
:101B90006795BA95C9F700976105710508959B018E
:101BA000AC010A2E06945795479537952795BA9517
:101BB000C9F7620F731F841F951FA01D08952F92F0
:101BC0003F924F925F926F927F928F929F92AF92CD
:101BD000BF92CF92DF92EF92FF920F931F93CF931A
:101BE000DF93CDB7DEB7CA1BDB0B0FB6F894DEBFB1
:101BF0000FBECDBF09942A88398848885F846E84D7
:101C00007D848C849B84AA84B984C884DF80EE8020
:101C1000FD800C811B81AA81B981CE0FD11D0FB629
:101C2000F894DEBF0FBECDBFED010895F894FFCF4D
:101C3000000000004403B102DB0291030C03EA023E
:101C4000FE020000000026041B043804EF03130406
:081C5000FF03F00325642400EA
:00000001FF
